{
  "contractName": "SimpleStorage",
  "abi": [
    {
      "constant": false,
      "inputs": [
        {
          "name": "key",
          "type": "string"
        },
        {
          "name": "a",
          "type": "address"
        }
      ],
      "name": "addPublicKey",
      "outputs": [],
      "payable": false,
      "stateMutability": "nonpayable",
      "type": "function"
    },
    {
      "constant": false,
      "inputs": [
        {
          "name": "link",
          "type": "string"
        },
        {
          "name": "from",
          "type": "address"
        },
        {
          "name": "to",
          "type": "address"
        }
      ],
      "name": "addData",
      "outputs": [],
      "payable": false,
      "stateMutability": "nonpayable",
      "type": "function"
    },
    {
      "constant": true,
      "inputs": [
        {
          "name": "a",
          "type": "address"
        }
      ],
      "name": "getPublicKey",
      "outputs": [
        {
          "name": "",
          "type": "string"
        }
      ],
      "payable": false,
      "stateMutability": "view",
      "type": "function"
    },
    {
      "constant": true,
      "inputs": [
        {
          "name": "a",
          "type": "address"
        }
      ],
      "name": "checkPublicKey",
      "outputs": [
        {
          "name": "",
          "type": "bool"
        }
      ],
      "payable": false,
      "stateMutability": "view",
      "type": "function"
    },
    {
      "constant": true,
      "inputs": [
        {
          "name": "a",
          "type": "address"
        }
      ],
      "name": "getLinks",
      "outputs": [
        {
          "name": "arr",
          "type": "string[]"
        }
      ],
      "payable": false,
      "stateMutability": "view",
      "type": "function"
    }
  ],
  "bytecode": "0x608060405234801561001057600080fd5b50610abf806100206000396000f3fe608060405234801561001057600080fd5b5060043610610074576000357c0100000000000000000000000000000000000000000000000000000000900480634b9d8624146100795780636af92956146100a9578063857cdbb8146100d95780639dc9ebe014610109578063ce68f12114610125575b600080fd5b610093600480360361008e9190810190610691565b610141565b6040516100a091906108c3565b60405180910390f35b6100c360048036036100be9190810190610691565b61026c565b6040516100d091906108e5565b60405180910390f35b6100f360048036036100ee9190810190610691565b6102db565b6040516101009190610900565b60405180910390f35b610123600480360361011e919081019061070e565b6103bb565b005b61013f600480360361013a91908101906106ba565b61048a565b005b6060600260008373ffffffffffffffffffffffffffffffffffffffff1673ffffffffffffffffffffffffffffffffffffffff168152602001908152602001600020805480602002602001604051908101604052809291908181526020016000905b8282101561025e578382906000526020600020018054600181600116156101000203166002900480601f01602080910402602001604051908101604052809291908181526020018280546001816001161561010002031660029004801561024a5780601f1061021f5761010080835404028352916020019161024a565b820191906000526020600020905b81548152906001019060200180831161022d57829003601f168201915b5050505050815260200190600101906101a2565b505050509050809050919050565b6000806000808473ffffffffffffffffffffffffffffffffffffffff1673ffffffffffffffffffffffffffffffffffffffff16815260200190815260200160002080546001816001161561010002031660029004905014156102d157600090506102d6565b600190505b919050565b60606000808373ffffffffffffffffffffffffffffffffffffffff1673ffffffffffffffffffffffffffffffffffffffff1681526020019081526020016000208054600181600116156101000203166002900480601f0160208091040260200160405190810160405280929190818152602001828054600181600116156101000203166002900480156103af5780601f10610384576101008083540402835291602001916103af565b820191906000526020600020905b81548152906001019060200180831161039257829003601f168201915b50505050509050919050565b816001846040516103cc91906108ac565b908152602001604051809103902060000160006101000a81548173ffffffffffffffffffffffffffffffffffffffff021916908373ffffffffffffffffffffffffffffffffffffffff1602179055508060018460405161042c91906108ac565b908152602001604051809103902060010160006101000a81548173ffffffffffffffffffffffffffffffffffffffff021916908373ffffffffffffffffffffffffffffffffffffffff1602179055506104858184610502565b505050565b60006104958261026c565b90506001151581151514156104a9576104fd565b826000808473ffffffffffffffffffffffffffffffffffffffff1673ffffffffffffffffffffffffffffffffffffffff16815260200190815260200160002090805190602001906104fb929190610582565b505b505050565b600260008373ffffffffffffffffffffffffffffffffffffffff1673ffffffffffffffffffffffffffffffffffffffff16815260200190815260200160002081908060018154018082558091505090600182039060005260206000200160009091929091909150908051906020019061057c929190610582565b50505050565b828054600181600116156101000203166002900490600052602060002090601f016020900481019282601f106105c357805160ff19168380011785556105f1565b828001600101855582156105f1579182015b828111156105f05782518255916020019190600101906105d5565b5b5090506105fe9190610602565b5090565b61062491905b80821115610620576000816000905550600101610608565b5090565b90565b60006106338235610a00565b905092915050565b600082601f830112151561064e57600080fd5b813561066161065c8261094f565b610922565b9150808252602083016020830185838301111561067d57600080fd5b610688838284610a32565b50505092915050565b6000602082840312156106a357600080fd5b60006106b184828501610627565b91505092915050565b600080604083850312156106cd57600080fd5b600083013567ffffffffffffffff8111156106e757600080fd5b6106f38582860161063b565b925050602061070485828601610627565b9150509250929050565b60008060006060848603121561072357600080fd5b600084013567ffffffffffffffff81111561073d57600080fd5b6107498682870161063b565b935050602061075a86828701610627565b925050604061076b86828701610627565b9150509250925092565b60006107818383610873565b905092915050565b600061079482610988565b61079e81856109b6565b9350836020820285016107b08561097b565b60005b848110156107e95783830388526107cb838351610775565b92506107d6826109a9565b91506020880197506001810190506107b3565b508196508694505050505092915050565b610803816109f4565b82525050565b60006108148261099e565b61081e81856109d8565b935061082e818560208601610a41565b61083781610a74565b840191505092915050565b600061084d8261099e565b61085781856109e9565b9350610867818560208601610a41565b80840191505092915050565b600061087e82610993565b61088881856109c7565b9350610898818560208601610a41565b6108a181610a74565b840191505092915050565b60006108b88284610842565b915081905092915050565b600060208201905081810360008301526108dd8184610789565b905092915050565b60006020820190506108fa60008301846107fa565b92915050565b6000602082019050818103600083015261091a8184610809565b905092915050565b6000604051905081810181811067ffffffffffffffff8211171561094557600080fd5b8060405250919050565b600067ffffffffffffffff82111561096657600080fd5b601f19601f8301169050602081019050919050565b6000602082019050919050565b600081519050919050565b600081519050919050565b600081519050919050565b6000602082019050919050565b600082825260208201905092915050565b600082825260208201905092915050565b600082825260208201905092915050565b600081905092915050565b60008115159050919050565b6000610a0b82610a12565b9050919050565b600073ffffffffffffffffffffffffffffffffffffffff82169050919050565b82818337600083830152505050565b60005b83811015610a5f578082015181840152602081019050610a44565b83811115610a6e576000848401525b50505050565b6000601f19601f830116905091905056fea265627a7a72305820a482310e2bbf4b7c9e7ff79244ec9b830c8ae1404d026241f249610c509b58b26c6578706572696d656e74616cf50037",
  "source": "pragma solidity ^0.5.4;\r\npragma experimental ABIEncoderV2;\r\n\r\ncontract SimpleStorage {\r\n  struct Data{\r\n    address from;\r\n    address to;\r\n    \r\n  }\r\n  mapping(address => string) publicKey;\r\n  function addPublicKey(string memory key,address a) public {\r\n    bool check = checkPublicKey(a);\r\n    if(check == true)\r\n    {\r\n\r\n    }\r\n    else\r\n    {\r\n      publicKey[a] = key;\r\n    }\r\n  }\r\n  mapping(string=>Data) data;\r\n  function addData(string memory link,address from,address to) public {\r\n      data[link].from=from;\r\n      data[link].to=to;\r\n      addLink(to,link);\r\n  }\r\n  mapping(address=>string[]) addrLink;\r\n  function addLink(address add,string memory link) private{\r\n    addrLink[add].push(link);\r\n  }\r\n  function getPublicKey(address a) public view returns (string memory){\r\n    return publicKey[a];\r\n  }\r\n  function checkPublicKey(address a) public view returns (bool) {\r\n\r\n    if(bytes(publicKey[a]).length ==0)\r\n    {\r\n      return false;\r\n    }\r\n    else\r\n    {\r\n      return true;\r\n    }\r\n  }\r\n  function getLinks(address a) public view returns (string[] memory arr)\r\n  {\r\n    arr = addrLink[a];\r\n    return arr;\r\n  }\r\n\r\n}\r\n",
  "sourcePath": "E:/github/secure-document-transfer/contracts/SimpleStorage.sol",
  "compiler": {
    "name": "solc",
    "version": "0.5.4+commit.9549d8ff.Emscripten.clang"
  },
  "schemaVersion": "3.0.9",
  "updatedAt": "2019-05-28T20:19:23.817Z",
  "devdoc": {
    "methods": {}
  },
  "userdoc": {
    "methods": {}
  }
}