{
  "contractName": "SimpleStorage",
  "abi": [
    {
      "constant": false,
      "inputs": [
        {
          "name": "key",
          "type": "string"
        },
        {
          "name": "a",
          "type": "address"
        }
      ],
      "name": "addPublicKey",
      "outputs": [],
      "payable": false,
      "stateMutability": "nonpayable",
      "type": "function",
      "signature": "0xce68f121"
    },
    {
      "constant": true,
      "inputs": [
        {
          "name": "a",
          "type": "address"
        }
      ],
      "name": "getPublicKey",
      "outputs": [
        {
          "name": "",
          "type": "string"
        }
      ],
      "payable": false,
      "stateMutability": "view",
      "type": "function",
      "signature": "0x857cdbb8"
    },
    {
      "constant": true,
      "inputs": [
        {
          "name": "a",
          "type": "address"
        }
      ],
      "name": "checkPublicKey",
      "outputs": [
        {
          "name": "",
          "type": "bool"
        }
      ],
      "payable": false,
      "stateMutability": "view",
      "type": "function",
      "signature": "0x6af92956"
    }
  ],
  "bytecode": "0x608060405234801561001057600080fd5b506104ef806100206000396000f3fe608060405234801561001057600080fd5b506004361061005e576000357c0100000000000000000000000000000000000000000000000000000000900480636af9295614610063578063857cdbb8146100bf578063ce68f1211461017c575b600080fd5b6100a56004803603602081101561007957600080fd5b81019080803573ffffffffffffffffffffffffffffffffffffffff169060200190929190505050610257565b604051808215151515815260200191505060405180910390f35b610101600480360360208110156100d557600080fd5b81019080803573ffffffffffffffffffffffffffffffffffffffff1690602001909291905050506102c6565b6040518080602001828103825283818151815260200191508051906020019080838360005b83811015610141578082015181840152602081019050610126565b50505050905090810190601f16801561016e5780820380516001836020036101000a031916815260200191505b509250505060405180910390f35b6102556004803603604081101561019257600080fd5b81019080803590602001906401000000008111156101af57600080fd5b8201836020820111156101c157600080fd5b803590602001918460018302840111640100000000831117156101e357600080fd5b91908080601f016020809104026020016040519081016040528093929190818152602001838380828437600081840152601f19601f820116905080830192505050505050509192919290803573ffffffffffffffffffffffffffffffffffffffff1690602001909291905050506103a6565b005b6000806000808473ffffffffffffffffffffffffffffffffffffffff1673ffffffffffffffffffffffffffffffffffffffff16815260200190815260200160002080546001816001161561010002031660029004905014156102bc57600090506102c1565b600190505b919050565b60606000808373ffffffffffffffffffffffffffffffffffffffff1673ffffffffffffffffffffffffffffffffffffffff1681526020019081526020016000208054600181600116156101000203166002900480601f01602080910402602001604051908101604052809291908181526020018280546001816001161561010002031660029004801561039a5780601f1061036f5761010080835404028352916020019161039a565b820191906000526020600020905b81548152906001019060200180831161037d57829003601f168201915b50505050509050919050565b60006103b182610257565b90506001151581151514156103c557610419565b826000808473ffffffffffffffffffffffffffffffffffffffff1673ffffffffffffffffffffffffffffffffffffffff168152602001908152602001600020908051906020019061041792919061041e565b505b505050565b828054600181600116156101000203166002900490600052602060002090601f016020900481019282601f1061045f57805160ff191683800117855561048d565b8280016001018555821561048d579182015b8281111561048c578251825591602001919060010190610471565b5b50905061049a919061049e565b5090565b6104c091905b808211156104bc5760008160009055506001016104a4565b5090565b9056fea165627a7a72305820db13be9f756e3fe49ea072daec2e674431b904fab4bb82ec6d3ca0fc5de65f260029",
  "source": "pragma solidity ^0.5.4;\n\ncontract SimpleStorage {\n  mapping(address => string) publicKey;\n  function addPublicKey(string memory key,address a) public {\n    bool check = checkPublicKey(a);\n    if(check == true)\n    {\n\n    }\n    else\n    {\n      publicKey[a] = key;\n    }\n  }\n  function getPublicKey(address a) public view returns (string memory){\n    return publicKey[a];\n  }\n  function checkPublicKey(address a) public view returns (bool) {\n\n    if(bytes(publicKey[a]).length ==0)\n    {\n      return false;\n    }\n    else\n    {\n      return true;\n    }\n  }\n\n}\n",
  "sourcePath": "/Users/shivansh/Desktop/secure-document-transfer/contracts/SimpleStorage.sol",
  "compiler": {
    "name": "solc",
    "version": "0.5.7+commit.6da8b019.Emscripten.clang"
  },
  "schemaVersion": "3.0.0-beta.2",
  "updatedAt": "2019-04-27T18:18:11.638Z",
  "devdoc": {
    "methods": {}
  },
  "userdoc": {
    "methods": {}
  }
}