{
  "contractName": "SimpleStorage",
  "abi": [
    {
      "constant": false,
      "inputs": [
        {
          "name": "key",
          "type": "string"
        },
        {
          "name": "a",
          "type": "address"
        }
      ],
      "name": "addPublicKey",
      "outputs": [],
      "payable": false,
      "stateMutability": "nonpayable",
      "type": "function",
      "signature": "0xce68f121"
    },
    {
      "constant": false,
      "inputs": [
        {
          "name": "link",
          "type": "string"
        },
        {
          "name": "from",
          "type": "address"
        },
        {
          "name": "to",
          "type": "address"
        }
      ],
      "name": "addData",
      "outputs": [],
      "payable": false,
      "stateMutability": "nonpayable",
      "type": "function",
      "signature": "0x9dc9ebe0"
    },
    {
      "constant": true,
      "inputs": [
        {
          "name": "a",
          "type": "address"
        }
      ],
      "name": "getPublicKey",
      "outputs": [
        {
          "name": "",
          "type": "string"
        }
      ],
      "payable": false,
      "stateMutability": "view",
      "type": "function",
      "signature": "0x857cdbb8"
    },
    {
      "constant": true,
      "inputs": [
        {
          "name": "a",
          "type": "address"
        }
      ],
      "name": "checkPublicKey",
      "outputs": [
        {
          "name": "",
          "type": "bool"
        }
      ],
      "payable": false,
      "stateMutability": "view",
      "type": "function",
      "signature": "0x6af92956"
    },
    {
      "constant": true,
      "inputs": [
        {
          "name": "a",
          "type": "address"
        }
      ],
      "name": "getLinks",
      "outputs": [
        {
          "name": "arr",
          "type": "string[]"
        }
      ],
      "payable": false,
      "stateMutability": "view",
      "type": "function",
      "signature": "0x4b9d8624"
    }
  ],
  "bytecode": "0x608060405234801561001057600080fd5b50610abd806100206000396000f3fe608060405234801561001057600080fd5b5060043610610074576000357c0100000000000000000000000000000000000000000000000000000000900480634b9d8624146100795780636af92956146100a9578063857cdbb8146100d95780639dc9ebe014610109578063ce68f12114610125575b600080fd5b610093600480360361008e919081019061068f565b610141565b6040516100a091906108c1565b60405180910390f35b6100c360048036036100be919081019061068f565b61026c565b6040516100d091906108e3565b60405180910390f35b6100f360048036036100ee919081019061068f565b6102db565b60405161010091906108fe565b60405180910390f35b610123600480360361011e919081019061070c565b6103bb565b005b61013f600480360361013a91908101906106b8565b61048a565b005b6060600260008373ffffffffffffffffffffffffffffffffffffffff1673ffffffffffffffffffffffffffffffffffffffff168152602001908152602001600020805480602002602001604051908101604052809291908181526020016000905b8282101561025e578382906000526020600020018054600181600116156101000203166002900480601f01602080910402602001604051908101604052809291908181526020018280546001816001161561010002031660029004801561024a5780601f1061021f5761010080835404028352916020019161024a565b820191906000526020600020905b81548152906001019060200180831161022d57829003601f168201915b5050505050815260200190600101906101a2565b505050509050809050919050565b6000806000808473ffffffffffffffffffffffffffffffffffffffff1673ffffffffffffffffffffffffffffffffffffffff16815260200190815260200160002080546001816001161561010002031660029004905014156102d157600090506102d6565b600190505b919050565b60606000808373ffffffffffffffffffffffffffffffffffffffff1673ffffffffffffffffffffffffffffffffffffffff1681526020019081526020016000208054600181600116156101000203166002900480601f0160208091040260200160405190810160405280929190818152602001828054600181600116156101000203166002900480156103af5780601f10610384576101008083540402835291602001916103af565b820191906000526020600020905b81548152906001019060200180831161039257829003601f168201915b50505050509050919050565b816001846040516103cc91906108aa565b908152602001604051809103902060000160006101000a81548173ffffffffffffffffffffffffffffffffffffffff021916908373ffffffffffffffffffffffffffffffffffffffff1602179055508060018460405161042c91906108aa565b908152602001604051809103902060010160006101000a81548173ffffffffffffffffffffffffffffffffffffffff021916908373ffffffffffffffffffffffffffffffffffffffff1602179055506104858184610502565b505050565b60006104958261026c565b90506001151581151514156104a9576104fd565b826000808473ffffffffffffffffffffffffffffffffffffffff1673ffffffffffffffffffffffffffffffffffffffff16815260200190815260200160002090805190602001906104fb929190610582565b505b505050565b600260008373ffffffffffffffffffffffffffffffffffffffff1673ffffffffffffffffffffffffffffffffffffffff16815260200190815260200160002081908060018154018082558091505090600182039060005260206000200160009091929091909150908051906020019061057c929190610582565b50505050565b828054600181600116156101000203166002900490600052602060002090601f016020900481019282601f106105c357805160ff19168380011785556105f1565b828001600101855582156105f1579182015b828111156105f05782518255916020019190600101906105d5565b5b5090506105fe9190610602565b5090565b61062491905b80821115610620576000816000905550600101610608565b5090565b90565b600061063382356109fe565b905092915050565b600082601f83011261064c57600080fd5b813561065f61065a8261094d565b610920565b9150808252602083016020830185838301111561067b57600080fd5b610686838284610a30565b50505092915050565b6000602082840312156106a157600080fd5b60006106af84828501610627565b91505092915050565b600080604083850312156106cb57600080fd5b600083013567ffffffffffffffff8111156106e557600080fd5b6106f18582860161063b565b925050602061070285828601610627565b9150509250929050565b60008060006060848603121561072157600080fd5b600084013567ffffffffffffffff81111561073b57600080fd5b6107478682870161063b565b935050602061075886828701610627565b925050604061076986828701610627565b9150509250925092565b600061077f8383610871565b905092915050565b600061079282610986565b61079c81856109b4565b9350836020820285016107ae85610979565b60005b848110156107e75783830388526107c9838351610773565b92506107d4826109a7565b91506020880197506001810190506107b1565b508196508694505050505092915050565b610801816109f2565b82525050565b60006108128261099c565b61081c81856109d6565b935061082c818560208601610a3f565b61083581610a72565b840191505092915050565b600061084b8261099c565b61085581856109e7565b9350610865818560208601610a3f565b80840191505092915050565b600061087c82610991565b61088681856109c5565b9350610896818560208601610a3f565b61089f81610a72565b840191505092915050565b60006108b68284610840565b915081905092915050565b600060208201905081810360008301526108db8184610787565b905092915050565b60006020820190506108f860008301846107f8565b92915050565b600060208201905081810360008301526109188184610807565b905092915050565b6000604051905081810181811067ffffffffffffffff8211171561094357600080fd5b8060405250919050565b600067ffffffffffffffff82111561096457600080fd5b601f19601f8301169050602081019050919050565b6000602082019050919050565b600081519050919050565b600081519050919050565b600081519050919050565b6000602082019050919050565b600082825260208201905092915050565b600082825260208201905092915050565b600082825260208201905092915050565b600081905092915050565b60008115159050919050565b6000610a0982610a10565b9050919050565b600073ffffffffffffffffffffffffffffffffffffffff82169050919050565b82818337600083830152505050565b60005b83811015610a5d578082015181840152602081019050610a42565b83811115610a6c576000848401525b50505050565b6000601f19601f830116905091905056fea265627a7a72305820c76f8ee65753ea464c0b4c98ba3e810bfe631b9dd063529c9ed3035830c2ebff6c6578706572696d656e74616cf50037",
  "source": "pragma solidity ^0.5.4;\npragma experimental ABIEncoderV2;\n\ncontract SimpleStorage {\n  struct Data{\n    address from;\n    address to;\n    \n  }\n  mapping(address => string) publicKey;\n  function addPublicKey(string memory key,address a) public {\n    bool check = checkPublicKey(a);\n    if(check == true)\n    {\n\n    }\n    else\n    {\n      publicKey[a] = key;\n    }\n  }\n  mapping(string=>Data) data;\n  function addData(string memory link,address from,address to) public {\n      data[link].from=from;\n      data[link].to=to;\n      addLink(to,link);\n  }\n  mapping(address=>string[]) addrLink;\n  function addLink(address add,string memory link) private{\n    addrLink[add].push(link);\n  }\n  function getPublicKey(address a) public view returns (string memory){\n    return publicKey[a];\n  }\n  function checkPublicKey(address a) public view returns (bool) {\n\n    if(bytes(publicKey[a]).length ==0)\n    {\n      return false;\n    }\n    else\n    {\n      return true;\n    }\n  }\n  function getLinks(address a) public view returns (string[] memory arr)\n  {\n    arr = addrLink[a];\n    return arr;\n  }\n\n}\n",
  "sourcePath": "/Users/shivansh/Desktop/secure-document-transfer/contracts/SimpleStorage.sol",
  "compiler": {
    "name": "solc",
    "version": "0.5.7+commit.6da8b019.Emscripten.clang"
  },
  "schemaVersion": "3.0.0-beta.2",
  "updatedAt": "2019-05-16T15:23:03.446Z",
  "devdoc": {
    "methods": {}
  },
  "userdoc": {
    "methods": {}
  }
}